:10000000BEC10000D8C10000D6C10000D4C10000AC
:10001000D2C10000D0C10000CEC10000CCC10000A0
:10002000CAC10000C8C1000011C60000C4C1000060
:10003000C2C10000C0C10000BEC10000BCC10000C0
:10004000BAC10000B8C10000B6C10000B4C10000D0
:10005000B2C10000B0C10000AEC10000ACC10000E0
:10006000AAC10000A8C10000A6C10000A4C10000F0
:10007000A2C10000A0C100009EC100009CC1000000
:100080009AC1000098C1000096C1000094C1000010
:1000900092C1000090C100008EC100008CC1000020
:1000A0008AC1000088C1000086C10000370000003E
:1000B000330000001300000027000000360000009D
:1000C0000F00000012000000260000002C000000BD
:1000D0001D00000031000000610000001D00000054
:1000E00004000000140000001E0000002B000000AF
:1000F0001B0000001C00000035000000190000007B
:100100000A00000017000000220000000A000000A2
:100110000B0000000C000000200000002300000085
:100120004A0000001C000000120000001200000045
:1001300031000000300000005500000011000000F8
:100140000D00000018000000240000000500000061
:100150000600000007000000120000000800000078
:10016000090000000A0000000B0000000C00000065
:100170005A0000005D0000005F0000001B0000004E
:100180000700000008000000200000000E00000032
:100190001200000069000000680000004500000037
:1001A000440000004300000042000000380000004E
:1001B0000B0000002F0000000500000010000000F0
:1001C0000E0000000C00000025000000E708000001
:1001D000E6060000E00300000E000000E101000060
:1001E000E50200002B000000820900006200000010
:1001F000590000005C000000100000000600000034
:100200000900000015000000210000001B00000094
:100210001C0000001D000000120000005A00000039
:10022000110000002A000000130000005000000030
:10023000280000002D0000004C0000002E000000EF
:100240005E00000060000000510000001600000089
:100250001700000018000000190000004F00000007
:100260000B000000600000001200000063000000AE
:100270005B00000014000000600000001D00000092
:10028000160000001A0000001F0000006B000000B4
:100290006F0000006D000000780000003E000000CC
:1002A0002900000000000000000000002A034D00AB
:1002B0006900630072006F005300770069007400EA
:1002C0006300680020004B006500790062006F0049
:1002D00061007200640000001A03430068006100BE
:1002E000730065002000430075007200740069000F
:1002F000730000000403090409022200010100C088
:10030000320904000001030101000921110100016B
:1003100022520007058103080005120110010000A8
:100320000008FD2369200200010200010501090601
:10033000A101050719E029E71500250175019508B8
:1003400081029501750881010508190129059505A6
:1003500075019102950175039101150025FF0507AF
:10036000190029FF9506750881000600FF950175A3
:10037000080901B1030902B1020903B102C0112445
:100380001FBECFEFDAE0DEBFCDBF11E0A0E0B1E0ED
:10039000ECE1F5E102C005900D92A031B107D9F76B
:1003A00011E0A0E1B1E001C01D92AC35B107E1F769
:1003B00025D00C948C0A24CE84B7877F84BF88E133
:1003C0000FB6F89480936000109260000FBE90E02A
:1003D00080E80FB6F89480936100909361000FBE9F
:1003E00084B1806F84B9209A289AE0E2F1E081E03C
:1003F000819391E0E033F907D9F70BC4CF93DF93F2
:10040000CDB7DEB72A970FB6F894DEBF0FBECDBFCB
:10041000D3DF7894C12CD12C7601C39420E131E054
:100420003E832D83F90180E090E045B19C0154E0CA
:10043000220F331F5A95E1F7342F3F70232B25B934
:1004400028983AE13A95F1F700C029B1289A21930A
:1004500001968031910549F78090420190904301C7
:10046000A0904401B090450180913101A0E2B1E03B
:100470009CEA692E90E0792EED81FE812190FE8329
:10048000ED839C919225B9F41196F0E26F0E711CE8
:1004900021E0A033B20781F78093310180924201BD
:1004A00090924301A0924401B092450180E091E016
:1004B00054D7EED5B3CF2C92A30100E010E0692F02
:1004C00070E078876F83422C512C5A8649862F81A1
:1004D0003885002E02C0359527950A94E2F720FF53
:1004E0006BC09A012F5F3F4F69857A85002E02C04D
:1004F000759567950A94E2F7FA0160FF3FC0949101
:10050000F9012491222389F01601270104C0220C4D
:10051000331C441C551C2A95D2F7209430944094E7
:10052000509482209320A420B520682F70E0E2E34D
:10053000F1E020E030E0261737070CF03DC0519085
:10054000591219C08150B9016E5C7E4F1B01E82F12
:10055000F0E0FA83E98349805A802415350564F573
:100560002F5F3F4FB9016E5C7E4FFB019081F1011F
:1005700091931F01F0CF2F5F3F4FDDCF9491F90191
:100580002491211109C08031B8F4E82FF0E0EE5C2D
:10059000FE4F90838F5F10C016012701022E04C00A
:1005A000220C331C441C551C0A94D2F78228932831
:1005B000A428B528293038F70F5F1F4F4C5F5F4FD5
:1005C0000830110509F083CF5FCF80E091E0B2D60B
:1005D000E2EEF0E0808184608083089580E091E025
:1005E00071C580910E0190910F01009729F001973C
:1005F00090930F0180930E0108950F931F93CF9353
:10060000DF93F901E801442371F0423009F04CC056
:1006100081E0808380914601818383E090E099832B
:10062000888381E044C080913001882319F01092C2
:10063000300135C040914201509143016091440125
:1006400070914501DB01CA0123E0B695A795979506
:1006500087952A95D1F7817041FD826046FD8460BF
:1006600050FD886042FD8062808380913101873037
:1006700028F43296A2E3B1E090E008C081E08283E2
:100680008383848385838683878309C09D01225366
:100690003140281739071CF42D912193F7CF88E0BA
:1006A00090E09983888302C01982188280E0DF91EC
:1006B000CF911F910F9108950F931F93423039F4FA
:1006C0000230110520F0F9018181809346011F91CC
:1006D0000F910895292F332723303105E1F05CF481
:1006E0002130310599F02230310579F582E290E030
:1006F00028EF32E02EC02132310511F122323105CE
:1007000021F582E590E02CE233E023C082E190E025
:100710002AE133E01EC099278130910541F08230F3
:10072000910541F0892B89F4E4EFF2E005C0E8ED92
:10073000F2E002C0ECEAF2E0849190E09F0109C08F
:1007400089E090E02AE033E004C080E090E020E01F
:1007500030E0FA01318320830895CF92DF92EF9247
:10076000FF920F931F93CF93DF93EC018B017A01DC
:10077000DED1811133C0E114F10439F0F701808139
:100780009181081B190BC80FD91FC12CD12C011541
:10079000110519F18091E80085FD16C08091E800EF
:1007A0008E778093E80074D4E114F10449F0F701E6
:1007B00080819181C80ED91ED182C08285E00EC091
:1007C000B6D1882321F30AC089918093F1000150AA
:1007D0001109FFEFCF1ADF0ADACF80E0DF91CF9166
:1007E0001F910F91FF90EF90DF90CF90089520918F
:1007F0005A0130915B012617370748F061157105E2
:1008000039F42091E8002E772093E80001C0B90167
:1008100040E061157105A9F120915301222309F4EB
:1008200043C0253009F442C02091E80023FD40C0B8
:100830002091E80022FD32C02091E80020FFE9CF9E
:100840004091F3002091F20030E0342BFC01CF0105
:100850006115710559F02830310540F4819180937C
:10086000F100615071092F5F3F4FF1CF41E0283017
:10087000310509F040E02091E8002E772093E80050
:10088000C8CF4111C9CF0AC080915301882361F0BC
:10089000853061F08091E80083FD0AC08091E80016
:1008A00082FFF2CF80E0089582E0089583E008950A
:1008B00081E008956115710529F42091E8002B77F6
:1008C0002093E800FC016115710541F1809153010D
:1008D000882361F1853061F18091E80083FD24C0B7
:1008E0008091E80082FFEFCF2091F3008091F20029
:1008F00090E0922B892B31F08091F100819361502F
:10090000710991F78091E8008B778093E800DBCF45
:1009100080915301882351F0853051F08091E80097
:1009200080FFF6CF80E0089581E0089582E0089589
:1009300083E0089520915A0130915B012617370713
:1009400048F06115710539F42091E8002E77209365
:10095000E80001C0B901FC0120E06115710591F1C9
:1009600080915301882309F440C0853009F43FC0C9
:100970008091E80083FD3DC08091E80082FD2FC09A
:100980008091E80080FFE9CF2091F3008091F20090
:1009900090E0922B6115710559F08830910540F473
:1009A00024912093F1003196615071090196F2CFA4
:1009B00021E0089709F020E08091E8008E7780938D
:1009C000E800CBCF2111CCCF0AC0809153018823FE
:1009D00061F0853061F08091E80083FD0AC080916C
:1009E000E80082FFF2CF80E0089582E0089583E07E
:1009F000089581E00895982F973058F59093E90075
:100A0000981739F07091EC002091ED005091F000B2
:100A100003C0242F762F50E021FF19C03091EB0046
:100A20003E7F3093EB003091ED003D7F3093ED0041
:100A30003091EB0031603093EB007093EC00209329
:100A4000ED005093F0002091EE0027FF07C09F5F5C
:100A5000D3CF8F708093E90081E0089580E00895FE
:100A6000EF92FF920F931F93CF93DF93E62EEC014B
:100A70008C010C5F1F4FF12CFE1491F1588155230E
:100A800051F1F801208169817A8131979081852F18
:100A90008F70873010F080E024C0223010F442E0E4
:100AA00001C046E0E8E0F0E020E0E617F70720F4B8
:100AB0002F5FEE0FFF1FF9CF2295207F422BF0E42E
:100AC0009F9F90011124551F5527551F652F622B9D
:100AD00092DF882301F3F39425960B5F1F4FCCCF51
:100AE00081E0DF91CF911F910F91FF90EF900895DA
:100AF0008091540187FF11C08091E80082FD05C0FC
:100B0000809153018111F8CF11C08091E8008B775B
:100B10000BC080915301882349F08091E80080FF49
:100B2000F8CF8091E8008E778093E80008952091B7
:100B3000E4003091E50095E64091EC00842F81704F
:100B400040FF22C08091E80080FD1CC080915301CD
:100B5000882391F0853091F08091EB0085FD10C0E5
:100B60004091E4005091E5004217530729F39A01A0
:100B7000915011F784E0089582E0089583E008958C
:100B800081E0089580E008954091E80042FFDECFC3
:100B900008950F931F93CF93DF934BD052D0C8ED9E
:100BA000D0E088818F778883888180688883888176
:100BB0008F7D888319BC1092530110924F011092BF
:100BC00051011092500100EE10E0F80180818B7FFE
:100BD000808388818160888342E060E080E00BDF71
:100BE000E1EEF0E080818E7F8083E2EEF0E08081B4
:100BF00081608083808188608083F80180818E7F1E
:100C00008083888180618883DF91CF911F910F91CC
:100C10000895E8EDF0E080818F7E8083E7EDF0E0DD
:100C200080818160808384E082BF81E08093520173
:100C3000B0CFE8EDF0E080818E7F80831092E200FB
:100C400008951092DA001092E10008951F920F9219
:100C50000FB60F9211242F933F934F935F936F938F
:100C60007F938F939F93AF93BF93EF93FF93809165
:100C7000E10082FF0AC08091E20082FF06C08091FD
:100C8000E1008B7F8093E100ACDC8091DA0080FF93
:100C90001DC08091D80080FF19C08091DA008E7F3E
:100CA0008093DA008091D90080FF0CC080E189BD7B
:100CB00082E189BD09B400FEFDCF81E0809353013C
:100CC000E6D104C019BC10925301E1D18091E1003A
:100CD00080FF18C08091E20080FF14C08091E20084
:100CE0008E7F8093E2008091E20080618093E20039
:100CF0008091D80080628093D80019BC85E08093F1
:100D00005301C5D18091E10084FF2FC08091E200A2
:100D100084FF2BC080E189BD82E189BD09B400FE5A
:100D2000FDCF8091D8008F7D8093D8008091E10025
:100D30008F7E8093E1008091E2008F7E8093E200BD
:100D40008091E20081608093E20080914F018823CE
:100D500011F084E007C08091E30087FD02C081E0CC
:100D600001C083E08093530192D18091E10083FF21
:100D700022C08091E20083FF1EC08091E100877F46
:100D80008093E10082E08093530110924F018091A3
:100D9000E1008E7F8093E1008091E2008E7F80935E
:100DA000E2008091E20080618093E20042E060E036
:100DB00080E021DE6CD1FF91EF91BF91AF919F91C7
:100DC0008F917F916F915F914F913F912F910F90F4
:100DD0000FBE0F901F9018951F93CF93DF93CDB741
:100DE000DEB7AA970FB6F894DEBF0FBECDBFE4E51D
:100DF000F1E088E08E0F9091F10091938E13FBCF7C
:100E0000EDDB8091E80083FF2AC18091540190912D
:100E10005501953009F483C030F49130A9F168F0A0
:100E2000933091F11CC1983009F4EEC0993009F467
:100E3000FAC0963009F013C194C0803821F082388E
:100E400009F00DC108C08091500190915101992382
:100E500089F082600FC0809158018F70873008F050
:100E6000FEC08093E9008091EB0085FB882780F924
:100E70001092E9009091E800977F9093E8008093AA
:100E8000F1001092F100CBC0282F2D7F09F0E7C0B0
:100E9000882319F0823061F0E2C0809156018130E0
:100EA00009F0DDC0933009F080E0809351012EC03D
:100EB0008091560181112AC0809158018F702FEFC7
:100EC000280F263008F0CBC08093E9002091EB007A
:100ED00020FF1CC0933021F48091EB00806214C08D
:100EE0009091EB0090619093EB0021E030E0A9013C
:100EF00002C0440F551F8A95E2F74093EA00109212
:100F0000EA008091EB0088608093EB001092E9008A
:100F10008091E800877F8093E800EADDA0C081111E
:100F20009EC0109156011F778091E3008078812B3D
:100F30008093E3008091E800877F8093E800D8DD0C
:100F40008091E80080FFFCCF8091E300806880936F
:100F5000E300111102C082E001C083E080935301DD
:100F60007EC08058823008F07AC0809156019091FE
:100F700057018C3D53E0950771F583E08A838AE23F
:100F800089834FB7F894DE01139620E03EE051E2EA
:100F9000E32FF0E050935700E49120FF03C0E29567
:100FA000EF703F5FEF708E2F90E0EA3010F0C79641
:100FB00001C0C0968D939D932F5F243149F74FBF99
:100FC0008091E800877F8093E8006AE270E0CE01BC
:100FD00001960DDC13C06091580170915901AE016A
:100FE0004F5F5F4F77DBBC010097C9F19091E8003C
:100FF000977F9093E80089819A819CDC8091E8003A
:101000008B778093E8002BC0803849F58091E80009
:10101000877F8093E80080914F018093F100809159
:10102000E8008E7778CF81111AC0909156019230E6
:10103000B0F48091E800877F8093E80090934F019F
:1010400057DD80914F01811106C08091E30087FD3B
:1010500002C081E001C084E080935301B6DA809140
:10106000E80083FF0AC08091E800877F8093E80052
:101070008091EB0080628093EB00AA960FB6F89403
:10108000DEBF0FBECDBFDF91CF911F9108950895B0
:10109000CF9380915301882399F0C091E900CF70DC
:1010A0009091EC00892F817090FD80E8C82B109200
:1010B000E9008091E80083FD8FDECF70C093E900E6
:1010C000CF9108956F927F928F929F92AF92BF922D
:1010D000CF92DF92EF92FF920F931F93CF93DF9304
:1010E00000D01F92CDB7DEB77C01CDB6DEB68091C1
:1010F000E80083FF08C1F701808190E0209158014A
:10110000309159012817390709F0FDC08091550128
:10111000833009F49FC030F4813071F0823009F4DB
:10112000D6C0F1C08A3009F4BAC08B3009F4A3C02C
:10113000893009F0E8C051C080915401813A09F02A
:10114000E2C08DB69EB61A82198280915601109126
:1011500057018B83F7018085482F50E08DB79EB7EC
:10116000841B950B0FB6F8949EBF0FBE8DBFEDB7D5
:10117000FEB731965F0160E070E0CF01C6D14FEF5E
:10118000410F8E010F5F1F4F9501BE016D5F7F4FB5
:10119000C70133DAF70186819781009721F04085F6
:1011A00050E0B501A9D11092E9008091E800877F55
:1011B0008093E8008B8181118093F10069817A81AD
:1011C000C50115DB8091E8008B778093E8000FB6AE
:1011D000F8949EBE0FBE8DBE96C0809154018132A0
:1011E00009F091C0ADB6BEB600915A0110915B01F5
:1011F00070905601609057018DB79EB7801B910B80
:101200000FB6F8949EBF0FBE8DBFEDB7FEB73196F7
:101210004F018091E800877F8093E800B801CF01FB
:1012200049DB8091E8008E778093E80021E071101F
:1012300001C020E030E0021B130B280D391D4FEFD9
:10124000460D672DC70138DA0FB6F894BEBE0FBE43
:10125000ADBE59C080915401813A09F054C08091CB
:10126000E800877F8093E8008091E80080FFFCCF52
:10127000F701818540C080915401813209F043C05B
:101280008091E800877F8093E80032DC90915601DE
:1012900081E0911101C080E0F701818734C0809125
:1012A0005401813281F58091E800877F8093E800C6
:1012B0001FDC8091560190915701882736E0969562
:1012C00087953A95E1F7F701958784871CC080914F
:1012D0005401813AC1F48091E800877F8093E8004F
:1012E0008091E80080FFFCCFF70184859585969575
:1012F0008795969587958093F1008091E8008E7789
:101300008093E800F5DB0FB6F894DEBE0FBECDBECD
:101310000F900F900F90DF91CF911F910F91FF9041
:10132000EF90DF90CF90BF90AF909F908F907F9085
:101330006F900895FC01399627E0DF011D922A95F0
:10134000E9F721E0FC01218724EF31E0358724878C
:1013500023E0248361E0019683CB4F925F926F92EA
:101360007F928F929F92AF92BF92CF92DF92EF9235
:10137000FF920F931F93CF93DF9300D01F92CDB7AF
:10138000DEB77C01ADB6BEB680915301843009F062
:101390008DC08091E4009091E500F70122853385AE
:1013A0002817390709F482C081818F708093E90082
:1013B0008091E80085FF7AC08DB69EB6408550E0EA
:1013C0008DB79EB7841B950B0FB6F8949EBF0FBECA
:1013D0008DBFEDB7FEB731966F011B821A8219825D
:1013E00060E070E0CF0191D08E010F5F1F4F96013A
:1013F00040E0BE016D5F7F4FC701FFD8482EF70167
:1014000084859585892B51F091E080E0268537858C
:10141000232B09F090E0092F182F02C000E010E004
:10142000F701668077806114710489F049815A81DF
:10143000B301C60154D055245394892B09F4512C7F
:10144000F701408550E0B601C30156D001C0512CD0
:1014500089819A81892BF1F0411004C0511002C09A
:10146000012BC1F0F7018485958597878687818157
:101470008F708093E9008B8181118093F1006981E5
:101480007A8140E050E0C60168D98091E8008E770B
:101490008093E8008091E4009091E500F701938744
:1014A00082870FB6F8949EBE0FBE8DBE0FB6F8941D
:1014B000BEBE0FBEADBE0F900F900F90DF91CF91CB
:1014C0001F910F91FF90EF90DF90CF90BF90AF9062
:1014D0009F908F907F906F905F904F900895FB0149
:1014E000DC0104C08D910190801921F441505040DD
:1014F000C8F7881B990B0895FB01DC0102C001901D
:101500000D9241505040D8F70895DC0101C06D9311
:0C15100041505040E0F70895F894FFCFE0
:10151C0000810800000147010800000000000000E5
:00000001FF
